:020000040000FA
:06000000EBEF0CF0120012
:020006001200E6
:060008002DEF06F01200CE
:02000E001200DE
:02001000FEFFF1
:0600180046EF06F01200A5
:02001E000200DE
:100020001F1A0000600000000C000000100000001B
:080030007C000000020000004A
:0800380058EC05F0FB0EDBCFD4
:10004000F3FFDB06F35000090AE0A6EC05F0FA0E18
:1000500011EC06F0F3E1151CF1E1010E01D0000EE8
:1000600087EF05F058EC05F03B0EE12402E3E16870
:10007000E652E16E010EDB6A020EDB6AF90EDBCF9F
:10008000F6FFFA0EDBCFF7FFFB0EDBCFF8FF080021
:10009000F550DF6EDF5002E1ABEF04F0250EDF5CC0
:1000A00002E09EEF04F0030EDB6A040EDB6A050E2D
:1000B000DB6A060EDB6A070EDB6AC0EC04F02D0E6D
:1000C000DF5C0CE02B0EDF5C09E0200EDF5C06E05D
:1000D000230EDF5C03E0300EDF5C1AE1DF50300AF4
:1000E00014E0130A0FE0030A0AE00B0A05E0060A0F
:1000F000E4E1030EDB80E1D7030EDB82DED7030EE3
:10010000DB84DBD7030EDB86D8D7030EDB88D5D79D
:100110002A0EDF5C1BE1BCEC04F00AEC05F010E0F9
:10012000030EDB8008680968130EDBCF0DF0140E98
:10013000DBCF0EF009EC09F0040E06C0DBFF03D0A4
:10014000130EF3EC04F0C0EC04F00BD0090EDB6AE4
:1001500061EC05F003E0D5EC05F0FAD7090EF3ECFD
:1001600004F0030EDBB0DB982E0EDF5C1BE1C0EC6D
:1001700004F02A0EDF5C0BE1BCEC04F00AEC05F0A5
:1001800003E1130E45EC05F0C0EC04F00BD0090EB2
:10019000DB6A61EC05F003E0D5EC05F0FAD7090E57
:1001A00045EC05F0680EDF5C07E1C0EC04F0680E7A
:1001B000DF5C1DE1030E18D0740EDF5C17E07A0ED1
:1001C000DF5C14E0480EDF5C06E0540EDF5C03E009
:1001D0005A0EDF5C02E1020E07D06C0EDF5C03E01A
:1001E0006A0EDF5C04E1010E98EC05F0C9DBDF501C
:1001F0006E0A01E17FD31E0A01E192D1200A01E1DA
:100200008FD13F0A01E149D11A0A01E146D10D0A15
:1002100001E143D1200A01E140D13A0A01E13DD197
:10022000200A01E13AD1260A01E135D10D0A01E1A6
:1002300032D11A0A01E1D9D0200A4AE0300A1FE07F
:10024000460A0EE0250A01E083D3D950F90FE96E82
:10025000FF0EDA20EA6E010EEE5E000EEE5AEE5A46
:10026000A6EC05F0250EE66E95DB03E1151C01E119
:1002700069D3A2EC05F001E26BD3DB2A69D3080E47
:10028000DB6A040EDB50010806E2040EDB046AECB4
:1002900005F0DB508BDB080EDB5009E0030EDB5072
:1002A000010B05E172DB01E04DD3080EDB6A64DB74
:1002B000EFCFDFFF1AEC06F003E1151C01E142D39A
:1002C000A2EC05F001E3DB2A60DB01E141D33AD384
:1002D000070EDB5002080FE1E6EC05F0030EADEC73
:1002E00005F00E0EEECFDBFF0F0EEECFDBFF100E94
:1002F000EECFDBFF20D0F70EDBCF17F0F80EDBCF11
:1003000018F0020E175E000E185AF70E17C0DBFF2A
:10031000F80E18C0DBFF17C0E9FF18C0EAFF9DEC1C
:1003200005F0166A0E0E14C0DBFF0F0E15C0DBFFC2
:10033000100E16C0DBFF0E0EDBCFE6FF0F0EDBCF7D
:10034000E6FF100EDBCFE6FF8EEC0BF0E552E55238
:10035000E552130E07C0DBFF140E08C0DBFF060ECC
:10036000DB5005E0130EE1EC05F001E26ADB05EC81
:1003700006F002E2130E37DBC8EC05F006E0040ECF
:10038000E1EC05F002E2050E2EDB030EDBB005D03A
:10039000FCDA01E0D7D2080EDB6A090EDB6A0E0E2A
:1003A000DBCFF6FF0F0EDBCFF7FF100EDBCFF8FF32
:1003B0000800F550DF6EDF5014E00BEC06F011E2A0
:1003C0001AEC06F003E1151C01E1BCD2BBDB01E332
:1003D000DB2A090EDB2AD9500E0FE96E000ECBDBAB
:1003E000E7D7D3DA01E1B4D2ADD2C6DA110EEECF3F
:1003F000DBFF120EEDCFDBFF110EDBCFE6FF120E9F
:10040000DBCFE6FF80EC0BF0E552E552130EF3CFA5
:10041000DBFF140EF4CFDBFF060EDB5004E0130EFF
:10042000D0DB01E20EDB05EC06F002E2130EDBDAB4
:10043000AFDB05E0040EC5DB02E2050ED4DA030EE5
:10044000DBB005D0A2DA01E07DD2080EDB6A090E2E
:10045000DB6A110EDBCFE9FF120EDBCFEAFFEFCF35
:10046000DFFFDF5014E0D7DB12E2E4DB03E1151C11
:1004700001E168D267DB01E3DB2A090EDB2A110EFA
:10048000DB2ADBCFE9FF120EE8E3DB2AE6D77DDAD1
:1004900001E15ED257D2030EDB8E070EDB0410E1C2
:1004A00095DB040E5ADB0A0EEECFDBFF0B0EEECF10
:1004B000DBFF0C0EEECFDBFF0D0EEECFDBFF6CD0C3
:1004C000070EDB5003082CE1030EDBAE0DD0B2DAD1
:1004D000020E76DAEFCF14F0156A166A176A14AEB8
:1004E00039D01568166835D0F70EDBCF15F0F80E49
:1004F000DBCF16F0020E155E000E165AF70E15C071
:10050000DBFFF80E16C0DBFF15C0E9FF16C0EAFFDF
:10051000EFCF14F00A0E14C0DBFF0B0EDB6A38D0ED
:10052000070EDB50020809E1030EDBAE04D059DBF5
:1005300016AE10D00ED055DB0DD0030EDBAE12D0B0
:1005400079DA020E3DDAF9DA166A176A15AE02D0C8
:1005500016681768E2DA0C0E16C0DBFF0D0E17C026
:10056000DBFF1AD0F70EDBCF16F0F80EDBCF17F05B
:10057000020E165E000E175AF70E16C0DBFFF80EBD
:1005800017C0DBFF16C0E9FF17C0EAFFD6DAC5DAED
:100590000C0EDB6A0D0EDB6A060EDB5005E1010E68
:1005A000F36E050EF3CFDBFF150EDB6A160EDB6A6A
:1005B000D950370F146E000EDA20156E390E14C0A4
:1005C000DBFF3A0E15C0DBFF380EDB6A080EDB6A74
:1005D0000A0EAEDADF50780A12E0200A10E0280A8C
:1005E0000CE0200A0AE03F0A06E00D0A02E0200AB9
:1005F00008E1020E05D0080E03D0080EDF26100E0B
:1006000097DA030EDBBE02D0DB92DB94DB50800B6B
:1006100024E08ADAD890030EEB50000A08E6000EB8
:10062000EE5C000EEE58000EEE58000EEE5815E28D
:1006300013DA0B680C680D680E6848EC0BF00A0EB4
:1006400002C0DBFF0B0E03C0DBFF0C0E04C0DBFFA0
:100650000D0E05C0DBFF2D0E08D0030EDBA202D06D
:100660002B0E03D0DBA408D0200EF36E170EF3CFB1
:10067000DBFF150EDB2A02D0170EDB6A050EDB50FE
:1006800003E1B7D901E189D00E0E146E1A0E156E72
:10069000000E166E070EDBCF17F0186A196A1A6A79
:1006A00017C00BF018C00CF019C00DF01AC00EF0F6
:1006B000D3D936EC0CF014500224F36E15500320FD
:1006C000F46E16500420F86EF4CFF7FFF3CFF6FF68
:1006D0000800090EF5CFDBFF580EDF5C0FE1610E5D
:1006E000F36E090E7BD90AE3200E146E090EDBCFE0
:1006F000E7FF1450E75E090EE7CFDBFF070EDBCF05
:1007000014F0156A166A176A0FDA14C00BF015C0D8
:100710000CF016C00DF017C00EF0EECF06F0EECFC5
:1007200007F0EECF08F0EFCF09F036EC0CF009C07F
:10073000EDFF08C0EDFF07C0EDFF06C0EFFF390E6B
:10074000DBCFE9FFDB063A0EDBCFEAFF01E2DB0697
:10075000090EDBCFEFFF150EDB2A4BD995E1030E17
:10076000DBA61DD06F0EDF5C06E1C1D918E3150EC4
:10077000DB285BDA14D0780EDF5C09E0580EDF5C12
:1007800006E0620EDF5C03E0420EDF5C08E1020E71
:10079000F36E160EF3CFDBFF02D0150EDB6A030EED
:1007A000DB50100B0EE0040EDBCF14F0050EDB5017
:1007B000D880145406E2060EDB5003E1040EDB5031
:1007C00034DA95D90AE2050EDBCFE7FF150EDB50D0
:1007D000E75E050EE7CFDBFF02D0050EDB6A040EF5
:1007E000DBCF14F0160E45D9D880145414E2160E3F
:1007F000DBCFE6FF150EDBCFE6FF040EDBCFE6FF17
:10080000050EDB50E552E75CE552D880E754E5522F
:10081000D880E7545FD9030EDB50010B0BE1080EC3
:10082000DB5008E0B2D801E08DD0080EDB50BED816
:10083000080EDB6A170EDB5007E088D9170EF1D9D6
:1008400003E1151C01E17ED0160EDB5016E07ED9C7
:10085000300EE66E9FD802E1151C74E077D9DFCF29
:10086000E6FFCBEC0AF0E552E552E552F4CF15F085
:100870000001F31C02E1151C65E0050EDBCF14F04E
:10088000160EDB50D880145409E2050EDBCFE7FFCB
:10089000160EDB50E75E050EE7CFDBFF300EE66E8F
:1008A000050ECBD94FE1390EDB2ADBCFE9FF3A0E3B
:1008B00001E3DB2ADBCFEAFF090EEFCFDBFFDB50E2
:1008C0000EE044D9090EADD902E1151C3BE0390E0A
:1008D000DB2ADBCFE9FF3A0EEDE3DB2AEBD755D875
:1008E00031E1160EDBCFE6FF080EC3D8E552E72450
:1008F0005DD82ED0070EDB50030A1CE0010A14E07D
:10090000030A07E07BD9DBCFEEFF020EDBCFEDFF62
:100910001FD0F5D8196A17AE02D0186819682CD8FC
:10092000BCD819C0EEFF14D0EAD817BE186824D876
:10093000B4D80ED063D9DBCFEFFF0AD07BD905E165
:10094000151C03E1F368F46810D0FCD801E3DB2A3E
:1009500079D947EF00F0010EDBCF14F0020EDBCFA8
:1009600015F014C0F3FF15C0F4FF3B0EE15C02E28A
:10097000E16AE552E16ECBD029D9020EADEF05F068
:1009800061D90800F550DF6E1200200EE66E080EE9
:100990001DEF06F0CBEC0AF0E552E552E552F3CF3D
:1009A00014F0F4CF15F00001F31C1200146E156A58
:1009B000D950010F4DD91450EE261550ED221200DA
:1009C000185E000E195AF70E18C0DBFFF80E19C09A
:1009D000DBFF18C0E9FF19C0EAFF1200DBCFF4FF0C
:1009E000F350F45C1200DB50E76E040EE7CFDBFF40
:1009F00012000A0EDBCF14F00B0EDBCF15F00C0E3D
:100A0000DBCF16F00D0EDBCF17F0145015101610BB
:100A100017101200130EEECFDBFF140EEDCFDBFF2D
:100A2000130EDBCF14F0140EDBCF15F00001800E97
:100A300015141200F70EDBCF18F0F80EDBCF19F00B
:100A40001200050EDB50E66ED950130F01D9E552A6
:100A5000E750EE6EED6A12000A0EDBCF06F00B0EC9
:100A6000DBCF07F00C0EDBCF08F00D0EDBCF09F06B
:100A70001200DBCFE6FF150EDBCFE6FF050EDB50E5
:100A8000E552E724E552E7241200DB50CED8010EF0
:100A9000F36E060EF3CFDBFF1200EE50EFCFEAFF4E
:100AA000E96E16C0EEFF17C0EEFF18C0EEFF120091
:100AB000D9CFE6FFDACFE6FFE1CFD9FFE2CFDAFF09
:100AC0001200DFCFE6FFE66AC9EC0CF0E552E55212
:100AD000F3501200E76E080EE7CFDBFF1200EECFF7
:100AE00014F0EECF15F0EFCF16F0176A1200050ED6
:100AF000DBCF14F0150EDB50D88014541200010E19
:100B0000DBCF16F0020EDBCF17F0186A1200E552A9
:100B1000E5CFDAFFE7CFD9FF12000A0E14C0DBFFE2
:100B20000B0E15C0DBFF1200D9500A0F28EF06F09C
:100B3000F36E070EF3CFDBFF1200EECF14F0EFCF12
:100B400015F01200010EDB2A020E1200FC0EDBCFA4
:100B5000E6FFFD0EDBCFE6FF1200145E000E155A15
:100B6000F70E14C0DBFFF80E15C0DBFF14C0E9FF61
:100B700015C0EAFF1200DA20EA6EEF2AEECFF6FF88
:100B8000000EEF22EECFF7FFEF22EECFF8FF1200BC
:100B9000040EDBCFE6FF130EDB50E552E75C9ADF75
:100BA000DB5004DF060EDB501200090EDB500A0D8D
:100BB000F350DF24D00FE76E090EE7CFDBFFC0EF65
:100BC00004F0DB50F36E050EEEEF04F0F70EDBCF12
:100BD00014F0F80EDBCF15F01200DFCFE6FFCAEFFE
:100BE00004F028DF030EECDE6FEF05F01CEC00F0E4
:100BF000E552E552E552E55200091200BDDEEE5025
:100C0000EFCFEAFFE96E010E1200130EDB50F36E18
:100C1000040EEEEF04F0040EDB50F36E090EEEEF5F
:100C200004F0DBCFE6FFCAEF04F0E76E050EE7CF76
:100C3000DBFF12008BDFEDEF05F0DBCFE6FF86DF99
:100C4000F6EF05F0D950F90FE96EFF0EBBEF05F096
:0A0C5000E96E000EDA20EA6E1200D1
:060C5A00DACFE4FFE652D0
:100C6000F250100B0FE0F250020B0CE080A005D008
:100C700000016607000E675B04D00001662B000EC2
:100C80006723F292E552E5CFDAFF1100DACFE4FFF5
:100C9000E2CFDAFFE9CFE4FFEACFE4FFF6CFE4FFEB
:100CA000F7CFE4FFF5CFE4FFF3CFE4FFF4CFE4FFA9
:100CB000FACFE4FF00EE00F0140EE80403E3EECFF9
:100CC000E4FFFBD700EE14F00C0EE80403E3EECFD4
:100CD000E4FFFBD7E6528250010B010AE8B08280A4
:100CE000E8A08290F250200B2CE0F250040B29E097
:100CF0000001D890655104E6F40E645D010E65595B
:100D00001AE37AC0E6FF7BC0E6FF66C0E6FF67C075
:100D1000E6FFE00E206E180E216E226A20C0E6FF6C
:100D2000E66E22C0E6FF3AEC0AF0236E070EE15EA3
:100D30000001646B656B642B000E6523666B676B4B
:100D4000F294E55200EE1FF00C0EE80403E3E5CF49
:100D5000EDFFFBD700EE13F0140EE80403E3E5CF3C
:100D6000EDFFFBD7E5CFFAFFE5CFF4FFE5CFF3FFCB
:100D7000E5CFF5FFE5CFF7FFE5CFF6FFE5CFEAFFDB
:100D8000E5CFE9FFE5CFDAFF1100070EB46EC26AC6
:100D90000F0EC16ED16A7C0ED36E6D6A080E6F6E37
:100DA000F80E946EF30E926E7F0E936ED50EE66E75
:100DB0007AEC0CF0E55238D8F194E66811EC0CF0BE
:100DC000E552330EE66EE66A3C0EE66E86EC0AF0FD
:100DD000E552E552E552040EE66E96EC0CF0E55253
:100DE000F00EE66EB1EC0CF0E552F00EE66E0DEC96
:100DF0000BF0E552F40EE66E010EE66EE2EC0BF03F
:100E0000E552E552000EE66EE66AB3EC0BF0E552F1
:100E1000E552C60E146E180E06D9E552E5528290C0
:100E2000D08EF28EF28CFFD710D9E65200017A6B89
:100E30007B6B796BD5AC10D060C076F061C077F079
:100E4000000ED8807657010E7757786B796B77AFA5
:100E50000DD0786979690AD060C076F061C077F00A
:100E6000FF0ED88076577757786B796BD5B60ED052
:100E7000070ED514DF6EDFCF14F0143407E2D890DC
:100E80007637773778377937DF06F5D776C006F0CB
:100E900077C007F078C008F079C009F030EC08F0AE
:100EA00007C01CF008C01DF009C01EF00AC01FF0EA
:100EB0000C6A0D6A800E0E6E400E0F6E9CEC08F0F0
:100EC00007C018F008C019F009C01AF00AC01BF0DA
:100ED0000C6A0D6A7A0E0E6E440E0F6E9CEC08F0D2
:100EE00007C014F008C015F009C016F00AC017F0CA
:100EF0000C6A240E0D6EF40E0E6E4A0E0F6E49EC47
:100F000008F036EC09F008C07AF009C07BF0E55231
:100F1000A1D09BD893D80001800E151403E18094D2
:100F2000808612D08084809608680968FD0EDBCF29
:100F30000DF0FE0EDBCF0EF009EC09F0FD0E06C041
:100F4000DBFFFE0E07C0DBFF79D8153404E2145036
:100F5000FF08030E155409E3FD0EDBCFE6FFFE0E7E
:100F6000DBCFE6FFE2EC0BF004D0B40E146E180EEB
:100F70005AD8E552E5526ED068D8020EE126070E27
:100F8000D514E76E010EE7CFDBFF58D8153404E225
:100F900014500A08000E155416E3010EDB5002E04F
:100FA000000E01D0010E146ED550080B02E0000EA9
:100FB00001D0010E141402E0D58626D0D5B624D077
:100FC000010EDB0621D0D5A604D0D596010EDB6A32
:100FD0001BD0010EDBCF15F0070EE76E1518E8AE3B
:100FE00002D0E73402D0E750155C02E3000E01D0D6
:100FF000010E146ED550080B02E0000E01D0010E58
:10100000141402E0010EDB2AF80ED514DF6E010E77
:10101000DB50DF10D56E08DF020EE15C02E2E16A10
:10102000E552E16E17D0156E166A14C0E6FFE66E43
:1010300016C0E6FF3AEC0AF0E5521200FD0EDBCFD7
:1010400014F0FE0EDBCF15F01200D9CFE6FFE1CF92
:0C105000D9FF1200E552E7CFD9FF1200D3
:04105C00019E0CD015
:10106000019E09AE09D0066C071E081E091EE86A1B
:10107000072208220922018E09C003F008C002F0ED
:1010800007C013F006C012F09E0E046E056A81EFD1
:1010900009F0016ABDEC09F0D5EC09F001B665EF85
:1010A00009F001A205D001BA65EF09F06CEF09F073
:1010B00001BA78EF09F001A005D001B865EF09F099
:1010C00078EF09F001B86CEF09F0056A7F0E0A2489
:1010D000046EE86A05220F50045EE86A055A1A0E8B
:1010E000106E0A6A126A136A026A036A0C50075E7B
:1010F0000D50085A0E50095A000E0A5A09E70C50B2
:1011000007260D5008220E500922000E0A2201D097
:10111000128AD8900736083609360A36D890123621
:10112000133602360336102EE1D709500810071087
:10113000D8A4128A81EF09F0016ABDEC09F0D5EC60
:1011400009F001B665EF09F001A205D001B865EF1D
:1011500009F06CEF09F001AA05D001B065EF09F0C4
:101160006CEF09F001B002D001A802D078EF09F0CD
:10117000056A0F500A24046EE86A05227E0E045E9A
:10118000E86A055A126A136A026A036A0E50090273
:10119000F4CF03F0F3CF02F00D500902F350132601
:1011A000F4500222000E03220E500802F3501326C0
:1011B000F4500222000E03220C500902F3501226B2
:1011C000F4501322000E022203220D500802F350A5
:1011D0001226F4501322000E022203220E500702A0
:1011E000F3501226F4501322000E022203220C5058
:1011F0000802F4501226000E1322022203220D5080
:101200000702F4501226000E13220222032281EF5D
:1012100009F009C013F008C012F008500D02F4CF15
:1012200007F0F3CF06F009500E02F4CF09F0F3CF28
:1012300008F00D02F3500726F4500822E86A09224C
:1012400012500E02F3500726F4500822E86A0922D1
:101250000EAE2FEF09F01250085E1350095A13AE6C
:10126000000C0D50085E0E50095A000C016ABDECCE
:1012700009F001B640EF09F001A20ED001B405D08B
:101280007F0E096EFF0E086E1FD0800E096E086A71
:101290001BD0096A086A18D001B0FBD78F0E0A600C
:1012A000EDD77E0E0A64F5D78E0E0A5C05E0D89065
:1012B000093208320A2AF8D701A406D0086C091EA0
:1012C000E86A092209AEE5D712007F0E0A6EFF0E0A
:1012D000096E086E076E12007F0E01BEFF0E0A6EC9
:1012E00002D07F0E0A6E800E096E086A076AF3D775
:1012F00001AE04D0800E0A6E096AF7D70A6A096A3D
:10130000F4D70350021013101210F8E005BEF0D706
:1013100003BE0CD004500510EBE0D8901236133603
:10132000023603360406D8A00506F2D70550D4E1EC
:101330000428D2E012AE11D07F0E121402E113A0E5
:101340000CD0132AE86A0222032207E3D880033272
:1013500002321332042A0428BFE00450C9E013C04B
:1013600007F002C008F00334096E04300A6E093237
:101370000A9E01BE0A8E6BEF09F009360A3602E3B7
:101380000184017E06E101800A6A096A086A076A27
:1013900012000A2803E0D88009321200D8900932DE
:1013A00002E101821200018612000E360F3602E3BE
:1013B000018C017E06E101880F6A0E6A0D6A0C6AD3
:1013C00012000F2803E0D8800E321200D8900E329F
:0613D000EAE1018A1200AF
:0A13D6001E0EF66E000EF76E000EFC
:1013E000F86E00010900F550716F0900F550726F39
:1013F00003E1716701D03DD00900F5506C6F090021
:10140000F5506D6F0900F5506E6F09000900F55039
:10141000E96E0900F550EA6E090009000900F5506F
:101420006F6F0900F550706F09000900F6CF73F077
:10143000F7CF74F0F8CF75F06CC0F6FF6DC0F7FF12
:101440006EC0F8FF00016F5302E1705307E009001E
:10145000F550EE6E6F07F8E27007F9D773C0F6FF2C
:1014600074C0F7FF75C0F8FF00017107000E725BD2
:04147000BFD71200D0
:0C147400D9CFE6FFDACFE6FFE1CFD9FFC9
:10148000E2CFDAFFE652E652E652E652D950FB0FBF
:10149000146EFF0EDA20156E14C0DEFFDD6EDECF97
:1014A000E6FFDDCFE6FFFB0EDBCFE6FFFC0EDBCF7A
:1014B000E6FFFD0EDBCFE6FF7CC0E6FF7DC0E6FF6A
:1014C00032EC00F0146E070EE15C02E2E16AE552D4
:1014D000E16E1450020EF3CFDBFF030EF4CFDBFFFF
:1014E000020EDBCF14F0030EDBCF15F014C0F3FFB8
:1014F00015C0F4FF040EE15C02E2E16AE552E16E20
:0C150000E552E5CFDAFFE7CFD9FF12007B
:04150C00D9CFE6FF4E
:10151000DACFE6FFE1CFD9FFE2CFDAFFAC6AAB6A00
:10152000FD0EDBB0AC88DBA202D0AC8CAB8CDBB4A4
:10153000AC8EDBA602D0AB8801D0AB8ADBB8AC8422
:101540009E98DBBAAB86DBAC02D09D8A01D09D9A17
:101550009E9ADBAE02D09D8801D09D98FB0EDB5099
:10156000AF6EFB0EFC0EDBCF15F015C014F0156A44
:101570001450B06EAC8AAB8E949C948EAC50100B11
:1015800004E0AC50800B01E1948CE552E5CFDAFF2A
:06159000E7CFD9FF1200B5
:0A159600D9CFE6FFDACFE6FFE1CF80
:1015A000D9FFE2CFDAFFFB0EDBCF14F0FC0EDBCF6E
:1015B00015F00001800E15141AE1FB0EDBCFE9FFD8
:1015C000FC0EDBCFEAFFEECFF3FFEDCFF4FFEE2A08
:1015D000000EEF22F3CFE9FFF4CFEAFFFD0EDBCFE1
:1015E000EFFFEF50156AF36E15C0F4FF10D0FB0E3D
:1015F000DB50FE0806E1FD0EDBCFE6FFF9EC0CF058
:1016000005D0FD0EDBCFE6FF03EC00F0E552E5521E
:0A161000E5CFDAFFE7CFD9FF1200A3
:06161A00D9CFE6FFDACF94
:10162000E6FFE1CFD9FFE2CFDAFFE652E652E6521B
:10163000E652F8CF02F0F6CF03F00C0EBA6E050EAC
:10164000F66EF76A300EF86E0800F550010B03E0F5
:10165000010EDB6802D0010EDB6A010EDB5002E0F6
:10166000949201D09396CA94FD0EDB50CB6ECA843F
:1016700002C0F8FF03C0F6FF040EE15C02E2E16A7B
:10168000E552E16EE552E5CFDAFFE7CFD9FF120070
:1016900006500B02F3CF02F0F4CF03F00C02F3502C
:1016A0000326000EF420046E06500D02F3500426AB
:1016B000000EF420056E06500E02F350052607506A
:1016C0000B02F3500326F4500422000E05220750AB
:1016D0000C02F3500426F450052207500D02F3507B
:1016E000052608500B02F3500426F450052208503A
:1016F0000C02F350052609500B02F3500526120088
:10170000FE0EE3CFE9FFFF0EE3CFEAFFF36AF46AD0
:10171000EE5203E0F34AF42AFBD71200FF0EE3CFA8
:10172000F8FFE552FF0EE3CFF7FFE552FF0EE3CFE0
:10173000F6FFE552E66AE66AE66A0900F55209E054
:10174000FD0EE32A05E1FE0EE32A02E1FF0EE32A85
:10175000F4D7FD0EE3CF07F0FE0EE3CF08F0FF0E47
:06176000E3CF09F01200C6
:0A176600D9CFE6FFDACFE6FFE1CFAE
:10177000D9FFE2CFDAFFE652E652FC0EDBCF14F0DF
:10178000FD0EDBCF15F0060ED89014361536E804A2
:10179000FBE114C0DEFF15C0DDFF010EDB50BB6EA8
:1017A000DF50E840E8403F0B300B146ECF0EBA1408
:1017B0001410BA6EE552E552E552E5CFDAFFE7CFF5
:0417C000D9FF12003B
:0C17C400D9CFE6FFDACFE6FFE1CFD9FF76
:1017D000E2CFDAFFE652E652FC0EDBCF14F0FD0E4C
:1017E000DBCF15F0060ED89014361536E804FBE171
:1017F00014C0DEFF15C0DDFF010EDB50BE6EDF50F2
:10180000E840E8403F0B300B146ECF0EBD141410AF
:10181000BD6EE552E552E552E5CFDAFFE7CFD9FFDD
:021820001200B4
:0E182200D9CFE6FFDACFE6FFE1CFD9FFE2CF64
:10183000DAFFF292FD0EDBA202D0F18C01D0F19C16
:10184000DBA002D0F18E01D0F19E9380DBAC02D000
:10185000F18001D0F190DBAE02D0F28801D0F29895
:0C186000E552E5CFDAFFE7CFD9FF120018
:04186C00056A046A9B
:10187000036A026A200EE76ED890063607360836ED
:10188000093602360336043605360B50025C0C501E
:1018900003580D5004580E50055809E30B50025ED2
:1018A0000C50035A0D50045A0E50055A062AE72EC2
:0418B000E4D7120067
:0C18B4007761726E696E672070776D645A
:1018C000633D25640A0044656D617272616765203D
:1018D00064752070726F6772616D6D6520210A00FA
:1018E0002564207469636B7320656E202564206D08
:0418F00073200A0057
:0C18F400D9CFE6FFDACFE6FFE1CFD9FF45
:10190000E2CFDAFFFD0EDB507F0BD56ED76AD66AC9
:10191000F294FD0EDBAE02D0F28A01D0F29AD58E9F
:0C192000E552E5CFDAFFE7CFD9FF120057
:04192C00D9CFE6FF2A
:10193000DACFE6FFE1CFD9FFE2CFDAFFFD0EDB50D1
:10194000FB0BCA6ECC6A9E92FD0EDBAE02D09D826E
:1019500001D09D92CA84E552E5CFDAFFE7CFD9FFE7
:02196000120073
:0E196200D9CFE6FFDACFE6FFE1CFD9FFE2CF23
:10197000DAFF0C0EBD129494CA94FD0EDB50CB6EB0
:10198000CA84E552E5CFDAFFE7CFD9FF120094947D
:02199000120043
:0E199200F36AF46AFF0EE124E96EFF0EE22014
:1019A000EA6EED6607D02F0EEF6404D03A0EEF60BA
:0619B00001D0F32A120031
:0A19B600000EF36E00EE00F0040EC8
:1019C00001D81200EA6002D0EE6AFCD7F350E96059
:0619D0001200EE6AFCD7D4
:0A19D60013EE00F023EE00F0F86AB3
:1019E000019CEBEC09F007EC00F0C5EC06F0FBD72E
:0219F0001200E3
:0E19F200FF0EE350ACBA04D0AF6AAB8EAC8AE5
:0E1A0000949CACA2FED7AD6EF36EF46A120099
:021A0E00303175
:0F1A1000323334353637383961626364656600C6
:011A1F0000C6
:0B1A20000000000000000000000000BB
:020000040030CA
:0100000003FC
:010001004CB2
:0100020037C6
:010003001EDE
:010005008179
:010006008178
:00000001FF
