:020000040000FA
:06000000B7EF00F0120052
:020006001200E6
:0600080065EF00F012009C
:01000E0000F1
:0600180066EF00F012008B
:02001E000100DF
:0C0020000E0000006A000000010000005B
:04002C001E0EF66E40
:10003000000EF76E000EF86E00010900F550656FB6
:100040000900F550666F03E1656701D03DD00900F6
:10005000F550606F0900F550616F0900F550626F4F
:1000600009000900F550E96E0900F550EA6E090033
:1000700009000900F550636F0900F550646F09002D
:100080000900F6CF67F0F7CF68F0F8CF69F060C0ED
:10009000F6FF61C0F7FF62C0F8FF0001635302E1A1
:1000A000645307E00900F550EE6E6307F8E2640759
:1000B000F9D767C0F6FF68C0F7FF69C0F8FF000115
:0A00C0006507000E665BBFD7120053
:0600CA0023D022D00F0E2E
:1000D000C16EC26AD16A7F0ED36E9268936EFE0EB5
:1000E000946E806881688268F28E0AD809D882503E
:1000F000010B010AE8B08280E8B0F7D78290F5D70B
:10010000E66890EC00F0E552E66890EC00F0E5520D
:100110001200DACFE4FFE652E552E5CFDAFF110034
:10012000FF0EE350036EEF0E01D0F30EE76EE72EE5
:1001300097EF00F00C0E026EE76AE72E9DEF00F0DD
:0E014000022E9CEF00F0032E95EF00F012004F
:02014E00000EA1
:10015000F36E00EE00F00D0E01D81200EA6002D03E
:0E016000EE6AFCD7F350E9601200EE6AFCD79D
:02016E001CEE85
:1001700000F02CEE00F0F86A019C16EC00F003ECA5
:0A01800000F067EC00F0FBD712005E
:020000040030CA
:0100010042BC
:010002001FDE
:010003001EDE
:01000500807A
:01000600A158
:01000900C036
:00000001FF
