:020000040000FA
:06000000BFEF00F012004A
:020006000000F8
:060008005EEF00F01200A3
:02000E001200DE
:0600180065EF00F012008C
:02001E00060ECC
:10002000F66E000EF76E000EF86E00010900F55036
:10003000656F0900F550666F03E1656701D03DD03B
:100040000900F550606F0900F550616F0900F55027
:10005000626F09000900F550E96E0900F550EA6E7B
:10006000090009000900F550636F0900F550646F3D
:1000700009000900F6CF67F0F7CF68F0F8CF69F014
:1000800060C0F6FF61C0F7FF62C0F8FF0001635374
:1000900002E1645307E00900F550EE6E6307F8E2F1
:1000A0006407F9D767C0F6FF68C0F7FF69C0F8FFBB
:0C00B00000016507000E665BBFD7120060
:0400BC00DACFE4FFB4
:1000C000E652E552E5CFDAFF1100DACFE4FFE6525F
:1000D0008250010B010AE8B08280E8A08290F250C1
:1000E000200B04E0F250040B01E0F294E552E5CF5E
:1000F000DAFF1100070EB46EC26A0F0EC16ED16A2C
:100100007F0ED36E6D6A080E6F6EF80E946EF30E4E
:10011000926E7F0E936E8250010B010AE8B08280CE
:10012000E8A08290C80EE66E98EC00F0E552F3D796
:10013000FF0EE350036EEF0E01D0F30EE76EE72ED5
:100140009FEF00F00C0E026EE76AE72EA5EF00F0BD
:0E015000022EA4EF00F0032E9DEF00F012002F
:02015E00000E91
:10016000F36E00EE00F0080E01D81200EA6002D033
:0E017000EE6AFCD7F350E9601200EE6AFCD78D
:02017E0013EE7E
:1001800000F023EE00F0F86A019C0FEC00F007ECA1
:0A01900000F07AEC00F0FBD712003B
:020000040030CA
:0100000039C6
:010001004CB2
:0100020037C6
:010003001EDE
:010005008179
:010006006198
:00000001FF
