:020000040000FA
:0600000062EF02F01200A5
:020006001200E6
:0600080029EF01F01200D7
:0600180073EF01F012007D
:02001E000100DF
:0C002000E0040000600000000C00000084
:04002C0095D9FD0E57
:10003000DBCF68F0FE0EDBCF69F0FD0EDBCF06F004
:10004000FE0EDBCF07F0010E061801E1075015E0A8
:10005000020E061801E107500EE0030E061801E13A
:10006000075007E0040E06180AE1075008E19396CE
:100070008196939481949392819293908190D08E63
:10008000F28EF2949F0EE66E20EC02F0E55269D1FA
:1000900063D9FD0EDBCFE9FFFE0EDBCFEAFF4ED9C1
:1000A000FB0EDBCFEEFFFC0EDBCFEDFF5AD154D9B8
:1000B000E1503ED9EE50ED1009E18150010B010AEB
:1000C000E8B08180E8B036D0819034D0D95030D9B2
:1000D000010EEE180DE1ED500BE18150020B01E035
:1000E000010E010AE8B08182E8B024D0819222D0CA
:1000F000D9501ED9020EEE180DE1ED500BE18150E2
:10010000040B01E0010E010AE8B08184E8B012D0CE
:10011000819410D0D9500CD9030EEE180BE1ED509C
:1001200009E18150080B01E0010E010AE8B0818667
:10013000E8A0819616D1F250200B01E189D0F2504F
:10014000040B01E185D000016B3513E26A51000810
:10015000000E6B550EE26AC010F06BC011F0100675
:10016000000E115A10C0E6FF11C0E6FFA0DFE552F5
:10017000E55200016B516919E8AE02D0693504D02F
:1001800068516A5D69516B5949E26AC0E6FF6BC00C
:10019000E6FF8DDFE552E55213681468156A6AC000
:1001A000E9FF6BC0EAFFCAD8EECF16F0EFCF17F029
:1001B000010ED89016361736E806FBE1340E17020A
:1001C000F3CF17F0080E1602F3501726340E16025E
:1001D000F3CF16F0F4501726B40E0B6E0C6AF3CF63
:1001E00006F017C007F03CEC02F006C016F007C09E
:1001F00017F0186A0650135C106E07501458116EF1
:1002000018501558126E080E105E070E115A000E87
:10021000125A10C0E6FF11C0E6FF04D0BF0EE66E12
:10022000630EE66E04EC02F0E552E55200016A2B23
:10023000000E6B2369516B19E8AE02D06B3504D008
:100240006A51685D6B51695902E26A6B6B6BF2949B
:100250001200DACFE4FFE2CFDAFFE9CFE4FFEACF22
:10026000E4FFF6CFE4FFF7CFE4FFF5CFE4FFF3CFF1
:10027000E4FFF4CFE4FFFACFE4FF00EE00F0100E4D
:10028000E80403E3EECFE4FFFBD700EE10F0090E25
:10029000E80403E3EECFE4FFFBD7E6524CDFE55280
:1002A00000EE18F0090EE80403E3E5CFEDFFFBD7FD
:1002B00000EE0FF0100EE80403E3E5CFEDFFFBD7EF
:1002C000E5CFFAFFE5CFF4FFE5CFF3FFE5CFF5FF8C
:1002D000E5CFF7FFE5CFF6FFE5CFEAFFE5CFE9FF92
:1002E000E5CFDAFF1100DACFE4FFE652E552E5CFC1
:1002F000DAFF1100070EB46EC26A0F0EC16ED16A2A
:100300007F0ED36E6D6A080E6F6E020EE66EE66AA1
:100310008DDEE552E552B40EE66EE66A000E16D8A2
:10032000E552E552280EE66EE66A010E0FD8F1D7C7
:10033000FD0FE96EFF0EDA20EA6E1200D890E93662
:10034000EA36600EE926000EEA221200E66EE66A40
:100350009FDEE552E5521200D9CFE6FFE1CFD9FF8B
:0A0360001200E552E7CFD9FF1200AA
:06036A001E0EF66E000EEF
:10037000F76E000EF86E00010900F550716F09006C
:10038000F550726F03E1716701D03DD00900F5505F
:100390006C6F0900F5506D6F0900F5506E6F090024
:1003A0000900F550E96E0900F550EA6E09000900F0
:1003B0000900F5506F6F0900F550706F09000900D2
:1003C000F6CF73F0F7CF74F0F8CF75F06CC0F6FF8E
:1003D0006DC0F7FF6EC0F8FF00016F5302E170536C
:1003E00007E00900F550EE6E6F07F8E27007F9D7E5
:1003F00073C0F6FF74C0F7FF75C0F8FF0001710706
:08040000000E725BBFD7120071
:08040800D9CFE6FFDACFE6FFD1
:10041000E1CFD9FFE2CFDAFFE652E652FC0EDBCFA6
:10042000DEFFDBCFDDFF010EDB50D76EDF50D66E77
:10043000E552E552E552E5CFDAFFE7CFD9FF1200EA
:10044000D9CFE6FFDACFE6FFE1CFD9FFE2CFDAFF7F
:10045000FD0EDB507F0BD56ED76AD66AF294FD0E87
:10046000DBAE02D0F28A01D0F29AD58EE552E5CF0A
:08047000DAFFE7CFD9FF12000B
:08047800036A026A100EE76E30
:10048000D89006360736023603360B50025C0C5005
:10049000035805E30B50025E0C50035A062AE72E60
:0404A000F0D712007F
:0C04A400000EF36E00EE00F0080E01D810
:1004B0001200EA6002D0EE6AFCD7F350E960120045
:0404C000EE6AFCD70D
:0C04C40013EE00F023EE00F0F86A0F9C2D
:1004D000B5EC01F003EC00F07AEC01F0FBD7120070
:0C04E00000000000000000000000000010
:020000040030CA
:0100000001FE
:010001004CB2
:0100020037C6
:010003001EDE
:010005008179
:0100060001F8
:00000001FF
