:020000040000FA
:0600000039EF02F01200CE
:020006001200E6
:0600080016EF01F01200EA
:0600180060EF01F0120090
:02001E000100DF
:0C0020008E040000600000000C000000D6
:04002C0082D9FD0E6A
:10003000DBCF68F0FE0EDBCF69F0FD0EDBCF06F004
:10004000FE0EDBCF07F0010E061801E1075015E0A8
:10005000020E061801E107500EE0030E061801E13A
:10006000075007E0040E06180AE1075008E19396CE
:100070008196939481949392819293908190D08E63
:10008000F28EF2949F0EE66E0DEC02F0E55256D120
:1000900050D9FD0EDBCFE9FFFE0EDBCFEAFF3BD9E7
:1000A000FB0EDBCFEEFFFC0EDBCFEDFF47D141D9DE
:1000B000E1502BD9EE50ED1009E18150010B010AFE
:1000C000E8B08180E8B036D0819034D0D9501DD9C5
:1000D000010EEE180DE1ED500BE18150020B01E035
:1000E000010E010AE8B08182E8B024D0819222D0CA
:1000F000D9500BD9020EEE180DE1ED500BE18150F5
:10010000040B01E0010E010AE8B08184E8B012D0CE
:10011000819410D0D950F9D8030EEE180BE1ED50B0
:1001200009E18150080B01E0010E010AE8B0818667
:10013000E8A0819603D1F250200B01E176D0F25075
:10014000040B73E000016B3513E26A510008000EE6
:100150006B550EE26AC00BF06BC00CF00B06000E84
:100160000C5A0BC0E6FF0CC0E6FFA1DFE552E552DA
:1001700000016B516919E8AE02D0693504D06851AD
:100180006A5D69516B5937E26AC0E6FF6BC0E6FFF2
:100190008EDFE552E5520E680F68106A6AC0E9FF0B
:1001A0006BC0EAFFB8D8EECF11F0EFCF12F0010E1E
:1001B000D89011361236E806FBE1060E1202F3CF94
:1001C00012F01102F3CF11F0F4501226136AF3501B
:1001D0000E5C0B6E12500F580C6E135010580D6EB3
:1001E000080E0B5E070E0C5A000E0D5A0BC0E6FFF0
:1001F0000CC0E6FF04D0BF0EE66E630EE66EF1ECB7
:1002000001F0E552E55200016A2B000E6B236951A3
:100210006B19E8AE02D06B3504D06A51685D6B5142
:10022000695902E26A6B6B6BF2941200DACFE4FF59
:10023000E2CFDAFFE9CFE4FFEACFE4FFF6CFE4FF55
:10024000F7CFE4FFF5CFE4FFF3CFE4FFF4CFE4FF13
:10025000FACFE4FF00EE00F00B0EE80403E3EECF6C
:10026000E4FFFBD700EE0BF0090EE80403E3EECF4A
:10027000E4FFFBD7E6525FDFE55200EE13F0090E14
:10028000E80403E3E5CFEDFFFBD700EE0AF00B0E29
:10029000E80403E3E5CFEDFFFBD7E5CFFAFFE5CFB9
:1002A000F4FFE5CFF3FFE5CFF5FFE5CFF7FFE5CFAF
:1002B000F6FFE5CFEAFFE5CFE9FFE5CFDAFF110072
:1002C000DACFE4FFE652E552E5CFDAFF1100070E80
:1002D000B46EC26A0F0EC16ED16A7F0ED36E6D6AA4
:1002E000080E6F6E020EE66EE66AA0DEE552E5527B
:1002F000B40EE66EE66A000E16D8E552E552280EF8
:10030000E66EE66A010E0FD8F1D7FD0FE96EFF0E1B
:10031000DA20EA6E1200D890E936EA36600EE92655
:10032000000EEA221200E66EE66AB2DEE552E552FF
:100330001200D9CFE6FFE1CFD9FF1200E552E7CF97
:04034000D9FF1200CF
:0C0344001E0EF66E000EF76E000EF86E36
:1003500000010900F550716F0900F550726F03E15B
:10036000716701D03DD00900F5506C6F0900F55060
:100370006D6F0900F5506E6F09000900F550E96EC8
:100380000900F550EA6E090009000900F5506F6F89
:100390000900F550706F09000900F6CF73F0F7CF30
:1003A00074F0F8CF75F06CC0F6FF6DC0F7FF6EC04B
:1003B000F8FF00016F5302E1705307E00900F550A8
:1003C000EE6E6F07F8E27007F9D773C0F6FF74C0DE
:1003D000F7FF75C0F8FF00017107000E725BBFD711
:0203E000120009
:0E03E200D9CFE6FFDACFE6FFE1CFD9FFE2CFB9
:1003F000DAFFE652E652FC0EDBCFDEFFDBCFDDFF9D
:10040000010EDB50D76EDF50D66EE552E552E55255
:0A041000E5CFDAFFE7CFD9FF1200B5
:06041A00D9CFE6FFDACFA6
:10042000E6FFE1CFD9FFE2CFDAFFFD0EDB507F0B15
:10043000D56ED76AD66AF294FD0EDBAE02D0F28A90
:1004400001D0F29AD58EE552E5CFDAFFE7CFD9FF9A
:02045000120098
:0E045200000EF36E00EE00F0080E01D812004E
:10046000EA6002D0EE6AFCD7F350E9601200EE6A4F
:02047000FCD7B7
:0E04720013EE00F023EE00F0F86A0A9CA2ECF4
:0E04800001F003EC00F067EC01F0FBD7120076
:02048E0000006C
:0A0490000000000000000000000062
:020000040030CA
:0100000001FE
:010001004CB2
:0100020037C6
:010003001EDE
:010005008179
:0100060001F8
:00000001FF
