:020000040000FA
:0600000003EF01F0120005
:020006000000F8
:060008000FEF00F01200F2
:02000E001200DE
:0600180010EF00F01200E1
:02001E0069D0A7
:1000200068D05BD8A69EA680A8505FD070D868D84C
:10003000A6945BD06CD8A69CF29E62D8A6B2FED7DE
:10004000A694F28E52D049D8A69EA69CA680A6B0B1
:10005000FED7A8504AD0070EB46EC26A0F0EC16E0A
:10006000D16A540ED36E6D6A080E6F6EF80E946EE0
:10007000F30E926E7F0E936E0001606B640E605DF6
:100080000AE260C0E6FF60C0E6FFD4DFE552E55259
:100090000001602BF3D7606B5A0E605D11E260C007
:1000A000E6FFD1DFE552E66E00016051EA6A610FBA
:1000B000E96E000EEA22E552E750EF6E602BECD7B6
:1000C0008250010B010AE8B08280E8A08290C80E3D
:1000D000E66EDCEC00F0E552F3D7D9CFE6FFE1CFD6
:1000E000D9FFFE0EDB50A96E1200E552E7CFD9FF13
:1000F0001200DACFE4FFE652E552E5CFDAFF110055
:10010000A684550EA76EAA0EA76EA6821200E5DF82
:0A011000FD0EDB50A86EA69E120043
:06011A00060EF66E000E59
:10012000F76E000EF86E00010900F550CA6F090065
:10013000F550CB6F03E1CA6701D03DD00900F550FF
:10014000C56F0900F550C66F0900F550C76F09006B
:100150000900F550E96E0900F550EA6E0900090042
:100160000900F550C86F0900F550C96F0900090072
:10017000F6CFCCF0F7CFCDF0F8CFCEF0C5C0F6FF7C
:10018000C6C0F7FFC7C0F8FF0001C85302E1C9535A
:1001900007E00900F550EE6EC807F8E2C907F9D785
:1001A000CCC0F6FFCDC0F7FFCEC0F8FF0001CA07F4
:0801B000000ECB5BBFD712006B
:0801B800FF0EE350036EEF0E91
:1001C00001D0F30EE76EE72EE3EF00F00C0E026EA7
:1001D000E76AE72EE9EF00F0022EE8EF00F0032EC9
:0601E000E1EF00F0120047
:0A01E600000EF36E00EE00F0080EAC
:1001F00001D81200EA6002D0EE6AFCD7F350E96041
:060200001200EE6AFCD7BB
:0A02060013EE00F023EE00F0F86A9A
:10021000019C8DEC00F007EC00F02BEC00F0FBD71C
:020220001200CA
:020000040030CA
:0100000000FF
:01000100CC32
:0100020037C6
:010003001EDE
:010005008179
:0100060001F8
:00000001FF
