:020000040000FA
:0600000090EF08F0120071
:020006001200E6
:06000800C8EF06F0120033
:02000E001200DE
:02001000FEFFF1
:03001200000000EB
:06001800C9EF06F0120022
:02001E000200DE
:10002000120000006A000000030000001000000041
:080030006D0000000200000059
:0800380058EC05F0FB0EDBCFD4
:10004000F3FFDB06F35000090AE0A6EC05F0FA0E18
:1000500011EC06F0F3E1151CF1E1010E01D0000EE8
:1000600087EF05F058EC05F03B0EE12402E3E16870
:10007000E652E16E010EDB6A020EDB6AF90EDBCF9F
:10008000F6FFFA0EDBCFF7FFFB0EDBCFF8FF080021
:10009000F550DF6EDF5002E1ABEF04F0250EDF5CC0
:1000A00002E09EEF04F0030EDB6A040EDB6A050E2D
:1000B000DB6A060EDB6A070EDB6AC0EC04F02D0E6D
:1000C000DF5C0CE02B0EDF5C09E0200EDF5C06E05D
:1000D000230EDF5C03E0300EDF5C1AE1DF50300AF4
:1000E00014E0130A0FE0030A0AE00B0A05E0060A0F
:1000F000E4E1030EDB80E1D7030EDB82DED7030EE3
:10010000DB84DBD7030EDB86D8D7030EDB88D5D79D
:100110002A0EDF5C1BE1BCEC04F00AEC05F010E0F9
:10012000030EDB8008680968130EDBCF0DF0140E98
:10013000DBCF0EF006EC08F0040E06C0DBFF03D0A8
:10014000130EF3EC04F0C0EC04F00BD0090EDB6AE4
:1001500061EC05F003E0D5EC05F0FAD7090EF3ECFD
:1001600004F0030EDBB0DB982E0EDF5C1BE1C0EC6D
:1001700004F02A0EDF5C0BE1BCEC04F00AEC05F0A5
:1001800003E1130E45EC05F0C0EC04F00BD0090EB2
:10019000DB6A61EC05F003E0D5EC05F0FAD7090E57
:1001A00045EC05F0680EDF5C07E1C0EC04F0680E7A
:1001B000DF5C1DE1030E18D0740EDF5C17E07A0ED1
:1001C000DF5C14E0480EDF5C06E0540EDF5C03E009
:1001D0005A0EDF5C02E1020E07D06C0EDF5C03E01A
:1001E0006A0EDF5C04E1010E98EC05F0C9DBDF501C
:1001F0006E0A01E17FD31E0A01E192D1200A01E1DA
:100200008FD13F0A01E149D11A0A01E146D10D0A15
:1002100001E143D1200A01E140D13A0A01E13DD197
:10022000200A01E13AD1260A01E135D10D0A01E1A6
:1002300032D11A0A01E1D9D0200A4AE0300A1FE07F
:10024000460A0EE0250A01E083D3D950F90FE96E82
:10025000FF0EDA20EA6E010EEE5E000EEE5AEE5A46
:10026000A6EC05F0250EE66E95DB03E1151C01E119
:1002700069D3A2EC05F001E26BD3DB2A69D3080E47
:10028000DB6A040EDB50010806E2040EDB046AECB4
:1002900005F0DB508BDB080EDB5009E0030EDB5072
:1002A000010B05E172DB01E04DD3080EDB6A64DB74
:1002B000EFCFDFFF1AEC06F003E1151C01E142D39A
:1002C000A2EC05F001E3DB2A60DB01E141D33AD384
:1002D000070EDB5002080FE1E6EC05F0030EADEC73
:1002E00005F00E0EEECFDBFF0F0EEECFDBFF100E94
:1002F000EECFDBFF20D0F70EDBCF17F0F80EDBCF11
:1003000018F0020E175E000E185AF70E17C0DBFF2A
:10031000F80E18C0DBFF17C0E9FF18C0EAFF9DEC1C
:1003200005F0166A0E0E14C0DBFF0F0E15C0DBFFC2
:10033000100E16C0DBFF0E0EDBCFE6FF0F0EDBCF7D
:10034000E6FF100EDBCFE6FFE1EC07F0E552E552E9
:10035000E552130E07C0DBFF140E08C0DBFF060ECC
:10036000DB5005E0130EE1EC05F001E26ADB05EC81
:1003700006F002E2130E37DBC8EC05F006E0040ECF
:10038000E1EC05F002E2050E2EDB030EDBB005D03A
:10039000FCDA01E0D7D2080EDB6A090EDB6A0E0E2A
:1003A000DBCFF6FF0F0EDBCFF7FF100EDBCFF8FF32
:1003B0000800F550DF6EDF5014E00BEC06F011E2A0
:1003C0001AEC06F003E1151C01E1BCD2BBDB01E332
:1003D000DB2A090EDB2AD9500E0FE96E000ECBDBAB
:1003E000E7D7D3DA01E1B4D2ADD2C6DA110EEECF3F
:1003F000DBFF120EEDCFDBFF110EDBCFE6FF120E9F
:10040000DBCFE6FFD3EC07F0E552E552130EF3CF56
:10041000DBFF140EF4CFDBFF060EDB5004E0130EFF
:10042000D0DB01E20EDB05EC06F002E2130EDBDAB4
:10043000AFDB05E0040EC5DB02E2050ED4DA030EE5
:10044000DBB005D0A2DA01E07DD2080EDB6A090E2E
:10045000DB6A110EDBCFE9FF120EDBCFEAFFEFCF35
:10046000DFFFDF5014E0D7DB12E2E4DB03E1151C11
:1004700001E168D267DB01E3DB2A090EDB2A110EFA
:10048000DB2ADBCFE9FF120EE8E3DB2AE6D77DDAD1
:1004900001E15ED257D2030EDB8E070EDB0410E1C2
:1004A00095DB040E5ADB0A0EEECFDBFF0B0EEECF10
:1004B000DBFF0C0EEECFDBFF0D0EEECFDBFF6CD0C3
:1004C000070EDB5003082CE1030EDBAE0DD0B2DAD1
:1004D000020E76DAEFCF14F0156A166A176A14AEB8
:1004E00039D01568166835D0F70EDBCF15F0F80E49
:1004F000DBCF16F0020E155E000E165AF70E15C071
:10050000DBFFF80E16C0DBFF15C0E9FF16C0EAFFDF
:10051000EFCF14F00A0E14C0DBFF0B0EDB6A38D0ED
:10052000070EDB50020809E1030EDBAE04D059DBF5
:1005300016AE10D00ED055DB0DD0030EDBAE12D0B0
:1005400079DA020E3DDAF9DA166A176A15AE02D0C8
:1005500016681768E2DA0C0E16C0DBFF0D0E17C026
:10056000DBFF1AD0F70EDBCF16F0F80EDBCF17F05B
:10057000020E165E000E175AF70E16C0DBFFF80EBD
:1005800017C0DBFF16C0E9FF17C0EAFFD6DAC5DAED
:100590000C0EDB6A0D0EDB6A060EDB5005E1010E68
:1005A000F36E050EF3CFDBFF150EDB6A160EDB6A6A
:1005B000D950370F146E000EDA20156E390E14C0A4
:1005C000DBFF3A0E15C0DBFF380EDB6A080EDB6A74
:1005D0000A0EAEDADF50780A12E0200A10E0280A8C
:1005E0000CE0200A0AE03F0A06E00D0A02E0200AB9
:1005F00008E1020E05D0080E03D0080EDF26100E0B
:1006000097DA030EDBBE02D0DB92DB94DB50800B6B
:1006100024E08ADAD890030EEB50000A08E6000EB8
:10062000EE5C000EEE58000EEE58000EEE5815E28D
:1006300013DA0B680C680D680E689BEC07F00A0E65
:1006400002C0DBFF0B0E03C0DBFF0C0E04C0DBFFA0
:100650000D0E05C0DBFF2D0E08D0030EDBA202D06D
:100660002B0E03D0DBA408D0200EF36E170EF3CFB1
:10067000DBFF150EDB2A02D0170EDB6A050EDB50FE
:1006800003E1B7D901E189D0700E146E110E156E19
:10069000000E166E070EDBCF17F0186A196A1A6A79
:1006A00017C00BF018C00CF019C00DF01AC00EF0F6
:1006B000D3D933EC08F014500224F36E1550032004
:1006C000F46E16500420F86EF4CFF7FFF3CFF6FF68
:1006D0000800090EF5CFDBFF580EDF5C0FE1610E5D
:1006E000F36E090E7BD90AE3200E146E090EDBCFE0
:1006F000E7FF1450E75E090EE7CFDBFF070EDBCF05
:1007000014F0156A166A176A0FDA14C00BF015C0D8
:100710000CF016C00DF017C00EF0EECF06F0EECFC5
:1007200007F0EECF08F0EFCF09F033EC08F009C086
:10073000EDFF08C0EDFF07C0EDFF06C0EFFF390E6B
:10074000DBCFE9FFDB063A0EDBCFEAFF01E2DB0697
:10075000090EDBCFEFFF150EDB2A4BD995E1030E17
:10076000DBA61DD06F0EDF5C06E1C1D918E3150EC4
:10077000DB285BDA14D0780EDF5C09E0580EDF5C12
:1007800006E0620EDF5C03E0420EDF5C08E1020E71
:10079000F36E160EF3CFDBFF02D0150EDB6A030EED
:1007A000DB50100B0EE0040EDBCF14F0050EDB5017
:1007B000D880145406E2060EDB5003E1040EDB5031
:1007C00034DA95D90AE2050EDBCFE7FF150EDB50D0
:1007D000E75E050EE7CFDBFF02D0050EDB6A040EF5
:1007E000DBCF14F0160E45D9D880145414E2160E3F
:1007F000DBCFE6FF150EDBCFE6FF040EDBCFE6FF17
:10080000050EDB50E552E75CE552D880E754E5522F
:10081000D880E7545FD9030EDB50010B0BE1080EC3
:10082000DB5008E0B2D801E08DD0080EDB50BED816
:10083000080EDB6A170EDB5007E088D9170EF1D9D6
:1008400003E1151C01E17ED0160EDB5016E07ED9C7
:10085000300EE66E9FD802E1151C74E077D9DFCF29
:10086000E6FF59EC07F0E552E552E552F4CF15F0FA
:100870000001F31C02E1151C65E0050EDBCF14F04E
:10088000160EDB50D880145409E2050EDBCFE7FFCB
:10089000160EDB50E75E050EE7CFDBFF300EE66E8F
:1008A000050ECBD94FE1390EDB2ADBCFE9FF3A0E3B
:1008B00001E3DB2ADBCFEAFF090EEFCFDBFFDB50E2
:1008C0000EE044D9090EADD902E1151C3BE0390E0A
:1008D000DB2ADBCFE9FF3A0EEDE3DB2AEBD755D875
:1008E00031E1160EDBCFE6FF080EC3D8E552E72450
:1008F0005DD82ED0070EDB50030A1CE0010A14E07D
:10090000030A07E07BD9DBCFEEFF020EDBCFEDFF62
:100910001FD0F5D8196A17AE02D0186819682CD8FC
:10092000BCD819C0EEFF14D0EAD817BE186824D876
:10093000B4D80ED063D9DBCFEFFF0AD07BD905E165
:10094000151C03E1F368F46810D0FCD801E3DB2A3E
:1009500079D947EF00F0010EDBCF14F0020EDBCFA8
:1009600015F014C0F3FF15C0F4FF3B0EE15C02E28A
:10097000E16AE552E16ECBD029D9020EADEF05F068
:1009800061D90800F550DF6E1200200EE66E080EE9
:100990001DEF06F059EC07F0E552E552E552F3CFB2
:1009A00014F0F4CF15F00001F31C1200146E156A58
:1009B000D950010F4DD91450EE261550ED221200DA
:1009C000185E000E195AF70E18C0DBFFF80E19C09A
:1009D000DBFF18C0E9FF19C0EAFF1200DBCFF4FF0C
:1009E000F350F45C1200DB50E76E040EE7CFDBFF40
:1009F00012000A0EDBCF14F00B0EDBCF15F00C0E3D
:100A0000DBCF16F00D0EDBCF17F0145015101610BB
:100A100017101200130EEECFDBFF140EEDCFDBFF2D
:100A2000130EDBCF14F0140EDBCF15F00001800E97
:100A300015141200F70EDBCF18F0F80EDBCF19F00B
:100A40001200050EDB50E66ED950130F01D9E552A6
:100A5000E750EE6EED6A12000A0EDBCF06F00B0EC9
:100A6000DBCF07F00C0EDBCF08F00D0EDBCF09F06B
:100A70001200DBCFE6FF150EDBCFE6FF050EDB50E5
:100A8000E552E724E552E7241200DB50CED8010EF0
:100A9000F36E060EF3CFDBFF1200EE50EFCFEAFF4E
:100AA000E96E16C0EEFF17C0EEFF18C0EEFF120091
:100AB000D9CFE6FFDACFE6FFE1CFD9FFE2CFDAFF09
:100AC0001200DFCFE6FFE66A6EEC08F0E552E55271
:100AD000F3501200E76E080EE7CFDBFF1200EECFF7
:100AE00014F0EECF15F0EFCF16F0176A1200050ED6
:100AF000DBCF14F0150EDB50D88014541200010E19
:100B0000DBCF16F0020EDBCF17F0186A1200E552A9
:100B1000E5CFDAFFE7CFD9FF12000A0E14C0DBFFE2
:100B20000B0E15C0DBFF1200D9500A0F28EF06F09C
:100B3000F36E070EF3CFDBFF1200EECF14F0EFCF12
:100B400015F01200010EDB2A020E1200FC0EDBCFA4
:100B5000E6FFFD0EDBCFE6FF1200145E000E155A15
:100B6000F70E14C0DBFFF80E15C0DBFF14C0E9FF61
:100B700015C0EAFF1200DA20EA6EEF2AEECFF6FF88
:100B8000000EEF22EECFF7FFEF22EECFF8FF1200BC
:100B9000040EDBCFE6FF130EDB50E552E75C9ADF75
:100BA000DB5004DF060EDB501200090EDB500A0D8D
:100BB000F350DF24D00FE76E090EE7CFDBFFC0EF65
:100BC00004F0DB50F36E050EEEEF04F0F70EDBCF12
:100BD00014F0F80EDBCF15F01200DFCFE6FFCAEFFE
:100BE00004F028DF030EECDE6FEF05F01CEC00F0E4
:100BF000E552E552E552E55200091200BDDEEE5025
:100C0000EFCFEAFFE96E010E1200130EDB50F36E18
:100C1000040EEEEF04F0040EDB50F36E090EEEEF5F
:100C200004F0DBCFE6FFCAEF04F0E76E050EE7CF76
:100C3000DBFF12008BDFEDEF05F0DBCFE6FF86DF99
:100C4000F6EF05F0D950F90FE96EFF0EBBEF05F096
:0A0C5000E96E000EDA20EA6E1200D1
:060C5A001E0EF66E000EF6
:100C6000F76E000EF86E00010900F550656F09007F
:100C7000F550666F03E1656701D03DD00900F5507E
:100C8000606F0900F550616F0900F550626F09004F
:100C90000900F550E96E0900F550EA6E09000900F7
:100CA0000900F550636F0900F550646F09000900F1
:100CB000F6CF67F0F7CF68F0F8CF69F060C0F6FFC5
:100CC00061C0F7FF62C0F8FF0001635302E16453A3
:100CD00007E00900F550EE6E6307F8E26407F9D704
:100CE00067C0F6FF68C0F7FF69C0F8FF000165073D
:080CF000000E665BBFD7120085
:080CF800D9CFE6FFDACFE6FFD9
:100D0000E1CFD9FFE2CFDAFFE652E652E652E652F1
:100D1000D950FB0F146EFF0EDA20156E14C0DEFFE3
:100D2000DD6EDECFE6FFDDCFE6FFFB0EDBCFE6FFBD
:100D3000FC0EDBCFE6FFFD0EDBCFE6FF6DC0E6FF6E
:100D40006EC0E6FF32EC00F0146E070EE15C02E2CA
:100D5000E16AE552E16E1450020EF3CFDBFF030EA1
:100D6000F4CFDBFF020EDBCF14F0030EDBCF15F068
:100D700014C0F3FF15C0F4FF040EE15C02E2E16A67
:100D8000E552E16EE552E5CFDAFFE7CFD9FF120079
:100D900044D043D00F0EC16EC26AD16A92687F0EF2
:100DA000936EFE0E946E8068816882684D0EE66ECA
:100DB000E66A3C0EE66E14EC07F0E552E552E552A9
:100DC000610E146E110E20D8E552E552E5528250A4
:100DD000010B010AE8B08280E8A08290C80EE66E9E
:100DE00057EC08F0E55200016B2B000E6C236BC032
:100DF000E6FF6CC0E6FF580E146E110E05D8176E94
:100E0000050EE15E1750E3D7156E166A14C0E6FFB3
:100E1000E66E16C0E6FF7CEF06F0DACFE4FFE6529E
:080E2000E552E5CFDAFF1100F5
:080E2800D9CFE6FFDACFE6FFA7
:100E3000E1CFD9FFE2CFDAFFAC6AAB6AFD0EDBB0DF
:100E4000AC88DBA202D0AC8CAB8CDBB4AC8EDBA666
:100E500002D0AB8801D0AB8ADBB8AC849E98DBBAF9
:100E6000AB86DBAC02D09D8A01D09D9A9E9ADBAE08
:100E700002D09D8801D09D98FB0EDB50AF6EFB0E1B
:100E8000FC0EDBCF15F015C014F0156A1450B06ECF
:100E9000AC8AAB8E949C948EAC50100B04E0AC509A
:100EA000800B01E1948CE552E5CFDAFFE7CFD9FF63
:020EB00012002E
:0E0EB200D9CFE6FFDACFE6FFE1CFD9FFE2CFDE
:100EC000DAFFFB0EDBCF14F0FC0EDBCF15F00001D8
:100ED000800E15141AE1FB0EDBCFE9FFFC0EDBCF11
:100EE000EAFFEECFF3FFEDCFF4FFEE2A000EEF2284
:100EF000F3CFE9FFF4CFEAFFFD0EDBCFEFFFEF50BA
:100F0000156AF36E15C0F4FF10D0FB0EDB50FE081F
:100F100006E1FD0EDBCFE6FF9EEC08F005D0FD0EEE
:100F2000DBCFE6FF03EC00F0E552E552E5CFDAFF58
:060F3000E7CFD9FF12001B
:0A0F360006500B02F3CF02F0F4CFD7
:100F400003F00C02F3500326000EF420046E06504A
:100F50000D02F3500426000EF420056E06500E021A
:100F6000F350052607500B02F3500326F4500422D9
:100F7000000E052207500C02F3500426F4500522FF
:100F800007500D02F350052608500B02F3500426BB
:100F9000F450052208500C02F350052609500B02AC
:060FA000F35005261200CB
:0A0FA600FE0EE3CFE9FFFF0EE3CFDC
:100FB000EAFFF36AF46AEE5203E0F34AF42AFBD73D
:100FC0001200FF0EE3CFF8FFE552FF0EE3CFF7FF6D
:100FD000E552FF0EE3CFF6FFE552E66AE66AE66AFF
:100FE0000900F55209E0FD0EE32A05E1FE0EE32AB1
:100FF00002E1FF0EE32AF4D7FD0EE3CF07F0FE0E69
:0C100000E3CF08F0FF0EE3CF09F0120070
:04100C0009C013F014
:1010100008C012F008500D02F4CF07F0F3CF06F02D
:1010200009500E02F4CF09F0F3CF08F00D02F3508F
:101030000726F4500822E86A092212500E02F350E3
:101040000726F4500822E86A09220EAE2CEF08F0B9
:101050001250085E1350095A13AE000C0D50085E72
:061060000E50095A000CBD
:0A106600056A046A036A026A200E9C
:10107000E76ED8900636073608360936023603364C
:10108000043605360B50025C0C5003580D500458C2
:101090000E50055809E30B50025E0C50035A0D50D8
:0E10A000045A0E50055A062AE72EE4D7120015
:0210AE00FF0E33
:1010B000E3501C6EEF0E01D0F30EE76EE72E5EEFED
:1010C00008F00C0E1B6EE76AE72E64EF08F01B2E8B
:0C10D00063EF08F01C2E5CEF08F012002B
:0410DC00F36AF46A55
:1010E000FF0EE124E96EFF0EE220EA6EED6607D006
:1010F0002F0EEF6404D03A0EEF6001D0F32A1200F5
:10110000000EF36E00EE00F00D0E01D81200EA6042
:1011100002D0EE6AFCD7F350E9601200EE6AFCD709
:101120001CEE00F02CEE00F0F86A019C2DEC06F0AD
:0C11300007EC00F0CAEC06F0FBD7120040
:04113C00FF0EE3506F
:10114000ACBA04D0AF6AAB8EAC8A949CACA2FED78A
:08115000AD6EF36EF46A1200AB
:08115800746573742025640A1C
:101160000059657320796F752043414E20210A0094
:10117000303132333435363738396162636465660D
:01118000006E
:020000040030CA
:0100010002FC
:010002001FDE
:010003001EDE
:01000500807A
:010006008178
:00000001FF
