:020000040000FA
:0600000026EF01F01200E2
:020006000000F8
:060008000FEF00F01200F2
:02000E001200DE
:0600180016EF00F01200DB
:02001E00DACF37
:10002000E4FFE652E552E5CFDAFF1100DACFE4FF54
:10003000E6528250010B010AE8B08280E8A082906B
:10004000F250200B04E0F250040B01E0F294E55270
:10005000E5CFDAFF1100D9CFE6FFE1CFD9FF040EDB
:10006000E126DE6ADD6A020EDB6A030EDB6AC2820B
:10007000C2B2FED7C35069D8060EC3CFE7FF070B45
:1000800004E0E742E79EE806FCE1E7505ED8C45092
:10009000DE6EDD6ADECF00F0DDCF01F0D8900036F5
:1000A0000136D8900036013600C0DEFF01C0DDFF0A
:1000B000020EDBCF02F0030EDBCF03F0DE50022492
:1000C000006EDD500320016E020E00C0DBFF030E48
:1000D00001C0DBFF020EDBCF00F0030EDBCF01F02F
:1000E00000C0F3FF01C0F4FF040EE15C02E2E16A2C
:1000F000E552E16EE552E7CFD9FF1200070EB46E6C
:10010000C26A0F0EC16ED16A540ED36E6D6A080EAC
:100110006F6EF80E946EF30E926E7F0E936E010E5C
:10012000C26E0E0EC16E8250010B010AE8B08280D1
:10013000E8A08290C80EE66EFFEC00F0E5528BDF7F
:10014000F3CF6AF0F4CF6BF0EED7E66ED950020F22
:10015000E96EDACFEAFFE552E750EE6EED6A120083
:10016000060EF66E000EF76E000EF86E0001090026
:10017000F550656F0900F550666F03E1656701D0C2
:100180003DD00900F550606F0900F550616F09001E
:10019000F550626F09000900F550E96E0900F5504D
:1001A000EA6E090009000900F550636F0900F55077
:1001B000646F09000900F6CF67F0F7CF68F0F8CF59
:1001C00069F060C0F6FF61C0F7FF62C0F8FF000190
:1001D000635302E1645307E00900F550EE6E6307D4
:1001E000F8E26407F9D767C0F6FF68C0F7FF69C097
:0E01F000F8FF00016507000E665BBFD7120026
:0201FE00FF0EF2
:10020000E350076EEF0E01D0F30EE76EE72E06EF18
:1002100001F00C0E066EE76AE72E0CEF01F0062ED9
:0C0220000BEF01F0072E04EF01F01200BC
:04022C00000EF36E5F
:1002300000EE00F0080E01D81200EA6002D0EE6A6B
:0C024000FCD7F350E9601200EE6AFCD716
:04024C0013EE00F0BD
:1002500023EE00F0F86A059CB0EC00F007EC00F02B
:080260007EEC00F0FBD7120058
:020000040030CA
:0100000000FF
:01000100CC32
:0100020037C6
:010003001EDE
:010005008179
:0100060001F8
:00000001FF
